{
  "_format": "hh-sol-artifact-1",
  "contractName": "SkinsNFT",
  "sourceName": "contracts/SkinsNFT.sol",
  "abi": [
    {
      "inputs": [
        {
          "internalType": "address",
          "name": "initialOwner",
          "type": "address"
        }
      ],
      "stateMutability": "nonpayable",
      "type": "constructor"
    },
    {
      "inputs": [
        {
          "internalType": "address",
          "name": "sender",
          "type": "address"
        },
        {
          "internalType": "uint256",
          "name": "tokenId",
          "type": "uint256"
        },
        {
          "internalType": "address",
          "name": "owner",
          "type": "address"
        }
      ],
      "name": "ERC721IncorrectOwner",
      "type": "error"
    },
    {
      "inputs": [
        {
          "internalType": "address",
          "name": "operator",
          "type": "address"
        },
        {
          "internalType": "uint256",
          "name": "tokenId",
          "type": "uint256"
        }
      ],
      "name": "ERC721InsufficientApproval",
      "type": "error"
    },
    {
      "inputs": [
        {
          "internalType": "address",
          "name": "approver",
          "type": "address"
        }
      ],
      "name": "ERC721InvalidApprover",
      "type": "error"
    },
    {
      "inputs": [
        {
          "internalType": "address",
          "name": "operator",
          "type": "address"
        }
      ],
      "name": "ERC721InvalidOperator",
      "type": "error"
    },
    {
      "inputs": [
        {
          "internalType": "address",
          "name": "owner",
          "type": "address"
        }
      ],
      "name": "ERC721InvalidOwner",
      "type": "error"
    },
    {
      "inputs": [
        {
          "internalType": "address",
          "name": "receiver",
          "type": "address"
        }
      ],
      "name": "ERC721InvalidReceiver",
      "type": "error"
    },
    {
      "inputs": [
        {
          "internalType": "address",
          "name": "sender",
          "type": "address"
        }
      ],
      "name": "ERC721InvalidSender",
      "type": "error"
    },
    {
      "inputs": [
        {
          "internalType": "uint256",
          "name": "tokenId",
          "type": "uint256"
        }
      ],
      "name": "ERC721NonexistentToken",
      "type": "error"
    },
    {
      "inputs": [
        {
          "internalType": "address",
          "name": "owner",
          "type": "address"
        }
      ],
      "name": "OwnableInvalidOwner",
      "type": "error"
    },
    {
      "inputs": [
        {
          "internalType": "address",
          "name": "account",
          "type": "address"
        }
      ],
      "name": "OwnableUnauthorizedAccount",
      "type": "error"
    },
    {
      "anonymous": false,
      "inputs": [
        {
          "indexed": true,
          "internalType": "address",
          "name": "owner",
          "type": "address"
        },
        {
          "indexed": true,
          "internalType": "address",
          "name": "approved",
          "type": "address"
        },
        {
          "indexed": true,
          "internalType": "uint256",
          "name": "tokenId",
          "type": "uint256"
        }
      ],
      "name": "Approval",
      "type": "event"
    },
    {
      "anonymous": false,
      "inputs": [
        {
          "indexed": true,
          "internalType": "address",
          "name": "owner",
          "type": "address"
        },
        {
          "indexed": true,
          "internalType": "address",
          "name": "operator",
          "type": "address"
        },
        {
          "indexed": false,
          "internalType": "bool",
          "name": "approved",
          "type": "bool"
        }
      ],
      "name": "ApprovalForAll",
      "type": "event"
    },
    {
      "anonymous": false,
      "inputs": [
        {
          "indexed": false,
          "internalType": "uint256",
          "name": "_fromTokenId",
          "type": "uint256"
        },
        {
          "indexed": false,
          "internalType": "uint256",
          "name": "_toTokenId",
          "type": "uint256"
        }
      ],
      "name": "BatchMetadataUpdate",
      "type": "event"
    },
    {
      "anonymous": false,
      "inputs": [
        {
          "indexed": true,
          "internalType": "uint256",
          "name": "tokenId",
          "type": "uint256"
        },
        {
          "indexed": true,
          "internalType": "address",
          "name": "seller",
          "type": "address"
        }
      ],
      "name": "ListingCancelled",
      "type": "event"
    },
    {
      "anonymous": false,
      "inputs": [
        {
          "indexed": false,
          "internalType": "uint256",
          "name": "_tokenId",
          "type": "uint256"
        }
      ],
      "name": "MetadataUpdate",
      "type": "event"
    },
    {
      "anonymous": false,
      "inputs": [
        {
          "indexed": true,
          "internalType": "address",
          "name": "previousOwner",
          "type": "address"
        },
        {
          "indexed": true,
          "internalType": "address",
          "name": "newOwner",
          "type": "address"
        }
      ],
      "name": "OwnershipTransferred",
      "type": "event"
    },
    {
      "anonymous": false,
      "inputs": [
        {
          "indexed": true,
          "internalType": "uint256",
          "name": "tokenId",
          "type": "uint256"
        },
        {
          "indexed": true,
          "internalType": "address",
          "name": "seller",
          "type": "address"
        },
        {
          "indexed": false,
          "internalType": "uint256",
          "name": "price",
          "type": "uint256"
        }
      ],
      "name": "SkinListed",
      "type": "event"
    },
    {
      "anonymous": false,
      "inputs": [
        {
          "indexed": true,
          "internalType": "uint256",
          "name": "tokenId",
          "type": "uint256"
        },
        {
          "indexed": true,
          "internalType": "address",
          "name": "to",
          "type": "address"
        },
        {
          "indexed": false,
          "internalType": "string",
          "name": "tokenURI",
          "type": "string"
        }
      ],
      "name": "SkinMinted",
      "type": "event"
    },
    {
      "anonymous": false,
      "inputs": [
        {
          "indexed": true,
          "internalType": "uint256",
          "name": "tokenId",
          "type": "uint256"
        },
        {
          "indexed": true,
          "internalType": "address",
          "name": "seller",
          "type": "address"
        },
        {
          "indexed": true,
          "internalType": "address",
          "name": "buyer",
          "type": "address"
        },
        {
          "indexed": false,
          "internalType": "uint256",
          "name": "price",
          "type": "uint256"
        }
      ],
      "name": "SkinSold",
      "type": "event"
    },
    {
      "anonymous": false,
      "inputs": [
        {
          "indexed": true,
          "internalType": "address",
          "name": "from",
          "type": "address"
        },
        {
          "indexed": true,
          "internalType": "address",
          "name": "to",
          "type": "address"
        },
        {
          "indexed": true,
          "internalType": "uint256",
          "name": "tokenId",
          "type": "uint256"
        }
      ],
      "name": "Transfer",
      "type": "event"
    },
    {
      "inputs": [
        {
          "internalType": "address",
          "name": "to",
          "type": "address"
        },
        {
          "internalType": "uint256",
          "name": "tokenId",
          "type": "uint256"
        }
      ],
      "name": "approve",
      "outputs": [],
      "stateMutability": "nonpayable",
      "type": "function"
    },
    {
      "inputs": [
        {
          "internalType": "address",
          "name": "owner",
          "type": "address"
        }
      ],
      "name": "balanceOf",
      "outputs": [
        {
          "internalType": "uint256",
          "name": "",
          "type": "uint256"
        }
      ],
      "stateMutability": "view",
      "type": "function"
    },
    {
      "inputs": [
        {
          "internalType": "uint256",
          "name": "tokenId",
          "type": "uint256"
        }
      ],
      "name": "buy",
      "outputs": [],
      "stateMutability": "payable",
      "type": "function"
    },
    {
      "inputs": [
        {
          "internalType": "uint256",
          "name": "tokenId",
          "type": "uint256"
        }
      ],
      "name": "cancelListing",
      "outputs": [],
      "stateMutability": "nonpayable",
      "type": "function"
    },
    {
      "inputs": [
        {
          "internalType": "uint256",
          "name": "tokenId",
          "type": "uint256"
        }
      ],
      "name": "getApproved",
      "outputs": [
        {
          "internalType": "address",
          "name": "",
          "type": "address"
        }
      ],
      "stateMutability": "view",
      "type": "function"
    },
    {
      "inputs": [
        {
          "internalType": "uint256",
          "name": "tokenId",
          "type": "uint256"
        }
      ],
      "name": "getListing",
      "outputs": [
        {
          "internalType": "address",
          "name": "seller",
          "type": "address"
        },
        {
          "internalType": "uint256",
          "name": "price",
          "type": "uint256"
        },
        {
          "internalType": "bool",
          "name": "active",
          "type": "bool"
        }
      ],
      "stateMutability": "view",
      "type": "function"
    },
    {
      "inputs": [],
      "name": "getNextTokenId",
      "outputs": [
        {
          "internalType": "uint256",
          "name": "",
          "type": "uint256"
        }
      ],
      "stateMutability": "view",
      "type": "function"
    },
    {
      "inputs": [
        {
          "internalType": "address",
          "name": "owner",
          "type": "address"
        },
        {
          "internalType": "address",
          "name": "operator",
          "type": "address"
        }
      ],
      "name": "isApprovedForAll",
      "outputs": [
        {
          "internalType": "bool",
          "name": "",
          "type": "bool"
        }
      ],
      "stateMutability": "view",
      "type": "function"
    },
    {
      "inputs": [
        {
          "internalType": "uint256",
          "name": "tokenId",
          "type": "uint256"
        },
        {
          "internalType": "uint256",
          "name": "price",
          "type": "uint256"
        }
      ],
      "name": "listForSale",
      "outputs": [],
      "stateMutability": "nonpayable",
      "type": "function"
    },
    {
      "inputs": [
        {
          "internalType": "uint256",
          "name": "",
          "type": "uint256"
        }
      ],
      "name": "listings",
      "outputs": [
        {
          "internalType": "address",
          "name": "seller",
          "type": "address"
        },
        {
          "internalType": "uint256",
          "name": "price",
          "type": "uint256"
        },
        {
          "internalType": "bool",
          "name": "active",
          "type": "bool"
        }
      ],
      "stateMutability": "view",
      "type": "function"
    },
    {
      "inputs": [
        {
          "internalType": "address",
          "name": "to",
          "type": "address"
        },
        {
          "internalType": "string",
          "name": "uri",
          "type": "string"
        }
      ],
      "name": "mint",
      "outputs": [
        {
          "internalType": "uint256",
          "name": "",
          "type": "uint256"
        }
      ],
      "stateMutability": "nonpayable",
      "type": "function"
    },
    {
      "inputs": [
        {
          "internalType": "address",
          "name": "to",
          "type": "address"
        },
        {
          "internalType": "string[]",
          "name": "uris",
          "type": "string[]"
        }
      ],
      "name": "mintBatch",
      "outputs": [
        {
          "internalType": "uint256[]",
          "name": "",
          "type": "uint256[]"
        }
      ],
      "stateMutability": "nonpayable",
      "type": "function"
    },
    {
      "inputs": [],
      "name": "name",
      "outputs": [
        {
          "internalType": "string",
          "name": "",
          "type": "string"
        }
      ],
      "stateMutability": "view",
      "type": "function"
    },
    {
      "inputs": [],
      "name": "owner",
      "outputs": [
        {
          "internalType": "address",
          "name": "",
          "type": "address"
        }
      ],
      "stateMutability": "view",
      "type": "function"
    },
    {
      "inputs": [
        {
          "internalType": "uint256",
          "name": "tokenId",
          "type": "uint256"
        }
      ],
      "name": "ownerOf",
      "outputs": [
        {
          "internalType": "address",
          "name": "",
          "type": "address"
        }
      ],
      "stateMutability": "view",
      "type": "function"
    },
    {
      "inputs": [],
      "name": "renounceOwnership",
      "outputs": [],
      "stateMutability": "nonpayable",
      "type": "function"
    },
    {
      "inputs": [
        {
          "internalType": "address",
          "name": "from",
          "type": "address"
        },
        {
          "internalType": "address",
          "name": "to",
          "type": "address"
        },
        {
          "internalType": "uint256",
          "name": "tokenId",
          "type": "uint256"
        }
      ],
      "name": "safeTransferFrom",
      "outputs": [],
      "stateMutability": "nonpayable",
      "type": "function"
    },
    {
      "inputs": [
        {
          "internalType": "address",
          "name": "from",
          "type": "address"
        },
        {
          "internalType": "address",
          "name": "to",
          "type": "address"
        },
        {
          "internalType": "uint256",
          "name": "tokenId",
          "type": "uint256"
        },
        {
          "internalType": "bytes",
          "name": "data",
          "type": "bytes"
        }
      ],
      "name": "safeTransferFrom",
      "outputs": [],
      "stateMutability": "nonpayable",
      "type": "function"
    },
    {
      "inputs": [
        {
          "internalType": "address",
          "name": "operator",
          "type": "address"
        },
        {
          "internalType": "bool",
          "name": "approved",
          "type": "bool"
        }
      ],
      "name": "setApprovalForAll",
      "outputs": [],
      "stateMutability": "nonpayable",
      "type": "function"
    },
    {
      "inputs": [
        {
          "internalType": "bytes4",
          "name": "interfaceId",
          "type": "bytes4"
        }
      ],
      "name": "supportsInterface",
      "outputs": [
        {
          "internalType": "bool",
          "name": "",
          "type": "bool"
        }
      ],
      "stateMutability": "view",
      "type": "function"
    },
    {
      "inputs": [],
      "name": "symbol",
      "outputs": [
        {
          "internalType": "string",
          "name": "",
          "type": "string"
        }
      ],
      "stateMutability": "view",
      "type": "function"
    },
    {
      "inputs": [
        {
          "internalType": "uint256",
          "name": "tokenId",
          "type": "uint256"
        }
      ],
      "name": "tokenURI",
      "outputs": [
        {
          "internalType": "string",
          "name": "",
          "type": "string"
        }
      ],
      "stateMutability": "view",
      "type": "function"
    },
    {
      "inputs": [
        {
          "internalType": "address",
          "name": "from",
          "type": "address"
        },
        {
          "internalType": "address",
          "name": "to",
          "type": "address"
        },
        {
          "internalType": "uint256",
          "name": "tokenId",
          "type": "uint256"
        }
      ],
      "name": "transferFrom",
      "outputs": [],
      "stateMutability": "nonpayable",
      "type": "function"
    },
    {
      "inputs": [
        {
          "internalType": "address",
          "name": "newOwner",
          "type": "address"
        }
      ],
      "name": "transferOwnership",
      "outputs": [],
      "stateMutability": "nonpayable",
      "type": "function"
    }
  ],
  "bytecode": "0x60806040523480156200001157600080fd5b50604051620022063803806200220683398101604081905262000034916200012f565b806040518060400160405280600881526020016714dada5b9cd3919560c21b8152506040518060400160405280600481526020016329a5a4a760e11b815250816000908162000084919062000206565b50600162000093828262000206565b5050506001600160a01b038116620000c557604051631e4fbdf760e01b81526000600482015260240160405180910390fd5b620000d081620000dd565b50506001600855620002d2565b600780546001600160a01b038381166001600160a01b0319831681179093556040519116919082907f8be0079c531659141344cd1fd0a4f28419497f9722a3daafe3b4186f6b6457e090600090a35050565b6000602082840312156200014257600080fd5b81516001600160a01b03811681146200015a57600080fd5b9392505050565b634e487b7160e01b600052604160045260246000fd5b600181811c908216806200018c57607f821691505b602082108103620001ad57634e487b7160e01b600052602260045260246000fd5b50919050565b601f8211156200020157600081815260208120601f850160051c81016020861015620001dc5750805b601f850160051c820191505b81811015620001fd57828155600101620001e8565b5050505b505050565b81516001600160401b0381111562000222576200022262000161565b6200023a8162000233845462000177565b84620001b3565b602080601f831160018114620002725760008415620002595750858301515b600019600386901b1c1916600185901b178555620001fd565b600085815260208120601f198616915b82811015620002a35788860151825594840194600190910190840162000282565b5085821015620002c25787850151600019600388901b60f8161c191681555b5050505050600190811b01905550565b611f2480620002e26000396000f3fe60806040526004361061014b5760003560e01c806395d89b41116100b6578063d96a094a1161006f578063d96a094a14610417578063de74e57b1461042a578063e80d7fec14610473578063e985e9c514610493578063ed0e31de146104b3578063f2fde38b146104e057600080fd5b806395d89b411461036d578063a22cb46514610382578063b88d4fde146103a2578063c87b56dd146103c2578063caa0f92a146103e2578063d0def521146103f757600080fd5b8063305a67a811610108578063305a67a8146102ac57806342842e0e146102cc5780636352211e146102ec57806370a082311461030c578063715018a61461033a5780638da5cb5b1461034f57600080fd5b806301ffc9a71461015057806306fdde0314610185578063081812fc146101a7578063095ea7b3146101df578063107a274a1461020157806323b872dd1461028c575b600080fd5b34801561015c57600080fd5b5061017061016b366004611863565b610500565b60405190151581526020015b60405180910390f35b34801561019157600080fd5b5061019a610511565b60405161017c91906118d0565b3480156101b357600080fd5b506101c76101c23660046118e3565b6105a3565b6040516001600160a01b03909116815260200161017c565b3480156101eb57600080fd5b506101ff6101fa366004611918565b6105cc565b005b34801561020d57600080fd5b5061026561021c3660046118e3565b600081815260096020908152604091829020825160608101845281546001600160a01b0316808252600183015493820184905260029092015460ff161515930183905293909250565b604080516001600160a01b039094168452602084019290925215159082015260600161017c565b34801561029857600080fd5b506101ff6102a7366004611942565b6105db565b3480156102b857600080fd5b506101ff6102c73660046118e3565b61066b565b3480156102d857600080fd5b506101ff6102e7366004611942565b610771565b3480156102f857600080fd5b506101c76103073660046118e3565b610791565b34801561031857600080fd5b5061032c61032736600461197e565b61079c565b60405190815260200161017c565b34801561034657600080fd5b506101ff6107e4565b34801561035b57600080fd5b506007546001600160a01b03166101c7565b34801561037957600080fd5b5061019a6107f8565b34801561038e57600080fd5b506101ff61039d366004611999565b610807565b3480156103ae57600080fd5b506101ff6103bd366004611a74565b610812565b3480156103ce57600080fd5b5061019a6103dd3660046118e3565b61082a565b3480156103ee57600080fd5b5060085461032c565b34801561040357600080fd5b5061032c610412366004611b10565b610835565b6101ff6104253660046118e3565b6108b3565b34801561043657600080fd5b506102656104453660046118e3565b6009602052600090815260409020805460018201546002909201546001600160a01b03909116919060ff1683565b34801561047f57600080fd5b506101ff61048e366004611b5e565b610b5c565b34801561049f57600080fd5b506101706104ae366004611b80565b610cd7565b3480156104bf57600080fd5b506104d36104ce366004611bb3565b610d05565b60405161017c9190611c89565b3480156104ec57600080fd5b506101ff6104fb36600461197e565b610dbd565b600061050b82610dfb565b92915050565b60606000805461052090611ccd565b80601f016020809104026020016040519081016040528092919081815260200182805461054c90611ccd565b80156105995780601f1061056e57610100808354040283529160200191610599565b820191906000526020600020905b81548152906001019060200180831161057c57829003601f168201915b5050505050905090565b60006105ae82610e20565b506000828152600460205260409020546001600160a01b031661050b565b6105d7828233610e59565b5050565b6001600160a01b03821661060a57604051633250574960e11b8152600060048201526024015b60405180910390fd5b6000610617838333610e66565b9050836001600160a01b0316816001600160a01b031614610665576040516364283d7b60e01b81526001600160a01b0380861660048301526024820184905282166044820152606401610601565b50505050565b6000818152600960205260409020600281015460ff166106ba5760405162461bcd60e51b815260206004820152600a602482015269139bdd081b1a5cdd195960b21b6044820152606401610601565b80546001600160a01b03163314806106eb5750336106e06007546001600160a01b031690565b6001600160a01b0316145b6107285760405162461bcd60e51b815260206004820152600e60248201526d139bdd08185d5d1a1bdc9a5e995960921b6044820152606401610601565b60028101805460ff1916905580546040516001600160a01b039091169083907f8e25282255ab31897df2b0456bb993ac7f84d376861aefd84901d2d63a7428a290600090a35050565b61078c83838360405180602001604052806000815250610812565b505050565b600061050b82610e20565b60006001600160a01b0382166107c8576040516322718ad960e21b815260006004820152602401610601565b506001600160a01b031660009081526003602052604090205490565b6107ec610f5f565b6107f66000610f8c565b565b60606001805461052090611ccd565b6105d7338383610fde565b61081d8484846105db565b610665338585858561107d565b606061050b826111a8565b600061083f610f5f565b600880546000918261085083611d1d565b91905055905061086084826112b9565b61086a81846112d3565b836001600160a01b0316817fccd9c695b2d5c09fa856a2229135e66e4e48754b4d436794ea3d205f26f740ae856040516108a491906118d0565b60405180910390a39392505050565b6000818152600960205260409020600281015460ff166109025760405162461bcd60e51b815260206004820152600a602482015269139bdd081b1a5cdd195960b21b6044820152606401610601565b806001015434101561094d5760405162461bcd60e51b8152602060048201526014602482015273125b9cdd59999a58da595b9d081c185e5b595b9d60621b6044820152606401610601565b80546001600160a01b031661096183610791565b6001600160a01b0316146109af5760405162461bcd60e51b815260206004820152601560248201527453656c6c6572206e6f206c6f6e676572206f776e7360581b6044820152606401610601565b8054600182015460028301805460ff191690556001600160a01b03909116906109d9823386611323565b6000826001600160a01b03168260405160006040518083038185875af1925050503d8060008114610a26576040519150601f19603f3d011682016040523d82523d6000602084013e610a2b565b606091505b5050905080610a6e5760405162461bcd60e51b815260206004820152600f60248201526e151c985b9cd9995c8819985a5b1959608a1b6044820152606401610601565b81341115610b0757600033610a838434611d36565b604051600081818185875af1925050503d8060008114610abf576040519150601f19603f3d011682016040523d82523d6000602084013e610ac4565b606091505b5050905080610b055760405162461bcd60e51b815260206004820152600d60248201526c1499599d5b990819985a5b1959609a1b6044820152606401610601565b505b336001600160a01b0316836001600160a01b0316867fe229b5c12fc08ebfa676a290615e3dea5a75b5ffc2bfe16e0c3b5e5ec38804de85604051610b4d91815260200190565b60405180910390a45050505050565b33610b6683610791565b6001600160a01b031614610ba85760405162461bcd60e51b81526020600482015260096024820152682737ba1037bbb732b960b91b6044820152606401610601565b60008111610bec5760405162461bcd60e51b815260206004820152601160248201527005072696365206d757374206265203e203607c1b6044820152606401610601565b60008281526009602052604090206002015460ff1615610c3f5760405162461bcd60e51b815260206004820152600e60248201526d105b1c9958591e481b1a5cdd195960921b6044820152606401610601565b604080516060810182523380825260208083018581526001848601818152600089815260098552879020955186546001600160a01b0319166001600160a01b03909116178655915190850155516002909301805460ff191693151593909317909255915183815284917f2b9813a9fa463650ac914f4526fa4544d7f7b9eb5d3154f599fb7e6150549d41910160405180910390a35050565b6001600160a01b03918216600090815260056020908152604080832093909416825291909152205460ff1690565b6060610d0f610f5f565b6000825167ffffffffffffffff811115610d2b57610d2b6119d5565b604051908082528060200260200182016040528015610d54578160200160208202803683370190505b50905060005b8351811015610db557610d8685858381518110610d7957610d79611d49565b6020026020010151610835565b828281518110610d9857610d98611d49565b602090810291909101015280610dad81611d1d565b915050610d5a565b509392505050565b610dc5610f5f565b6001600160a01b038116610def57604051631e4fbdf760e01b815260006004820152602401610601565b610df881610f8c565b50565b60006001600160e01b03198216632483248360e11b148061050b575061050b826113d3565b6000818152600260205260408120546001600160a01b03168061050b57604051637e27328960e01b815260048101849052602401610601565b61078c8383836001611423565b6000828152600260205260408120546001600160a01b0390811690831615610e9357610e93818486611529565b6001600160a01b03811615610ed157610eb0600085600080611423565b6001600160a01b038116600090815260036020526040902080546000190190555b6001600160a01b03851615610f00576001600160a01b0385166000908152600360205260409020805460010190555b60008481526002602052604080822080546001600160a01b0319166001600160a01b0389811691821790925591518793918516917fddf252ad1be2c89b69c2b068fc378daa952ba7f163c4a11628f55a4df523b3ef91a4949350505050565b6007546001600160a01b031633146107f65760405163118cdaa760e01b8152336004820152602401610601565b600780546001600160a01b038381166001600160a01b0319831681179093556040519116919082907f8be0079c531659141344cd1fd0a4f28419497f9722a3daafe3b4186f6b6457e090600090a35050565b6001600160a01b03821661101057604051630b61174360e31b81526001600160a01b0383166004820152602401610601565b6001600160a01b03838116600081815260056020908152604080832094871680845294825291829020805460ff191686151590811790915591519182527f17307eab39ab6107e8899845ad3d59bd9653f200f220920489ca2b5937696c31910160405180910390a3505050565b6001600160a01b0383163b156111a157604051630a85bd0160e11b81526001600160a01b0384169063150b7a02906110bf908890889087908790600401611d5f565b6020604051808303816000875af19250505080156110fa575060408051601f3d908101601f191682019092526110f791810190611d9c565b60015b611163573d808015611128576040519150601f19603f3d011682016040523d82523d6000602084013e61112d565b606091505b50805160000361115b57604051633250574960e11b81526001600160a01b0385166004820152602401610601565b805160208201fd5b6001600160e01b03198116630a85bd0160e11b1461119f57604051633250574960e11b81526001600160a01b0385166004820152602401610601565b505b5050505050565b60606111b382610e20565b50600082815260066020526040812080546111cd90611ccd565b80601f01602080910402602001604051908101604052809291908181526020018280546111f990611ccd565b80156112465780601f1061121b57610100808354040283529160200191611246565b820191906000526020600020905b81548152906001019060200180831161122957829003601f168201915b50505050509050600061126460408051602081019091526000815290565b90508051600003611276575092915050565b8151156112a8578082604051602001611290929190611db9565b60405160208183030381529060405292505050919050565b6112b18461158d565b949350505050565b6105d7828260405180602001604052806000815250611602565b60008281526006602052604090206112eb8282611e2e565b506040518281527ff8e1a15aba9398e019f0b49df1a4fde98ee17ae345cb5f6b5e2c27f5033e8ce79060200160405180910390a15050565b6001600160a01b03821661134d57604051633250574960e11b815260006004820152602401610601565b600061135b83836000610e66565b90506001600160a01b03811661138757604051637e27328960e01b815260048101839052602401610601565b836001600160a01b0316816001600160a01b031614610665576040516364283d7b60e01b81526001600160a01b0380861660048301526024820184905282166044820152606401610601565b60006001600160e01b031982166380ac58cd60e01b148061140457506001600160e01b03198216635b5e139f60e01b145b8061050b57506301ffc9a760e01b6001600160e01b031983161461050b565b808061143757506001600160a01b03821615155b156114f957600061144784610e20565b90506001600160a01b038316158015906114735750826001600160a01b0316816001600160a01b031614155b801561148657506114848184610cd7565b155b156114af5760405163a9fbf51f60e01b81526001600160a01b0384166004820152602401610601565b81156114f75783856001600160a01b0316826001600160a01b03167f8c5be1e5ebec7d5bd14f71427d1e84f3dd0314c0f7b2291e5b200ac8c7c3b92560405160405180910390a45b505b5050600090815260046020526040902080546001600160a01b0319166001600160a01b0392909216919091179055565b61153483838361161a565b61078c576001600160a01b03831661156257604051637e27328960e01b815260048101829052602401610601565b60405163177e802f60e01b81526001600160a01b038316600482015260248101829052604401610601565b606061159882610e20565b5060006115b060408051602081019091526000815290565b905060008151116115d057604051806020016040528060008152506115fb565b806115da8461167d565b6040516020016115eb929190611db9565b6040516020818303038152906040525b9392505050565b61160c8383611710565b61078c33600085858561107d565b60006001600160a01b038316158015906112b15750826001600160a01b0316846001600160a01b0316148061165457506116548484610cd7565b806112b15750506000908152600460205260409020546001600160a01b03908116911614919050565b6060600061168a83611775565b600101905060008167ffffffffffffffff8111156116aa576116aa6119d5565b6040519080825280601f01601f1916602001820160405280156116d4576020820181803683370190505b5090508181016020015b600019016f181899199a1a9b1b9c1cb0b131b232b360811b600a86061a8153600a85049450846116de57509392505050565b6001600160a01b03821661173a57604051633250574960e11b815260006004820152602401610601565b600061174883836000610e66565b90506001600160a01b0381161561078c576040516339e3563760e11b815260006004820152602401610601565b60008072184f03e93ff9f4daa797ed6e38ed64bf6a1f0160401b83106117b45772184f03e93ff9f4daa797ed6e38ed64bf6a1f0160401b830492506040015b6d04ee2d6d415b85acef810000000083106117e0576d04ee2d6d415b85acef8100000000830492506020015b662386f26fc1000083106117fe57662386f26fc10000830492506010015b6305f5e1008310611816576305f5e100830492506008015b612710831061182a57612710830492506004015b6064831061183c576064830492506002015b600a831061050b5760010192915050565b6001600160e01b031981168114610df857600080fd5b60006020828403121561187557600080fd5b81356115fb8161184d565b60005b8381101561189b578181015183820152602001611883565b50506000910152565b600081518084526118bc816020860160208601611880565b601f01601f19169290920160200192915050565b6020815260006115fb60208301846118a4565b6000602082840312156118f557600080fd5b5035919050565b80356001600160a01b038116811461191357600080fd5b919050565b6000806040838503121561192b57600080fd5b611934836118fc565b946020939093013593505050565b60008060006060848603121561195757600080fd5b611960846118fc565b925061196e602085016118fc565b9150604084013590509250925092565b60006020828403121561199057600080fd5b6115fb826118fc565b600080604083850312156119ac57600080fd5b6119b5836118fc565b9150602083013580151581146119ca57600080fd5b809150509250929050565b634e487b7160e01b600052604160045260246000fd5b604051601f8201601f1916810167ffffffffffffffff81118282101715611a1457611a146119d5565b604052919050565b600067ffffffffffffffff831115611a3657611a366119d5565b611a49601f8401601f19166020016119eb565b9050828152838383011115611a5d57600080fd5b828260208301376000602084830101529392505050565b60008060008060808587031215611a8a57600080fd5b611a93856118fc565b9350611aa1602086016118fc565b925060408501359150606085013567ffffffffffffffff811115611ac457600080fd5b8501601f81018713611ad557600080fd5b611ae487823560208401611a1c565b91505092959194509250565b600082601f830112611b0157600080fd5b6115fb83833560208501611a1c565b60008060408385031215611b2357600080fd5b611b2c836118fc565b9150602083013567ffffffffffffffff811115611b4857600080fd5b611b5485828601611af0565b9150509250929050565b60008060408385031215611b7157600080fd5b50508035926020909101359150565b60008060408385031215611b9357600080fd5b611b9c836118fc565b9150611baa602084016118fc565b90509250929050565b60008060408385031215611bc657600080fd5b611bcf836118fc565b915060208084013567ffffffffffffffff80821115611bed57600080fd5b818601915086601f830112611c0157600080fd5b813581811115611c1357611c136119d5565b8060051b611c228582016119eb565b918252838101850191858101908a841115611c3c57600080fd5b86860192505b83831015611c7857823585811115611c5a5760008081fd5b611c688c89838a0101611af0565b8352509186019190860190611c42565b809750505050505050509250929050565b6020808252825182820181905260009190848201906040850190845b81811015611cc157835183529284019291840191600101611ca5565b50909695505050505050565b600181811c90821680611ce157607f821691505b602082108103611d0157634e487b7160e01b600052602260045260246000fd5b50919050565b634e487b7160e01b600052601160045260246000fd5b600060018201611d2f57611d2f611d07565b5060010190565b8181038181111561050b5761050b611d07565b634e487b7160e01b600052603260045260246000fd5b6001600160a01b0385811682528416602082015260408101839052608060608201819052600090611d92908301846118a4565b9695505050505050565b600060208284031215611dae57600080fd5b81516115fb8161184d565b60008351611dcb818460208801611880565b835190830190611ddf818360208801611880565b01949350505050565b601f82111561078c57600081815260208120601f850160051c81016020861015611e0f5750805b601f850160051c820191505b8181101561119f57828155600101611e1b565b815167ffffffffffffffff811115611e4857611e486119d5565b611e5c81611e568454611ccd565b84611de8565b602080601f831160018114611e915760008415611e795750858301515b600019600386901b1c1916600185901b17855561119f565b600085815260208120601f198616915b82811015611ec057888601518255948401946001909101908401611ea1565b5085821015611ede5787850151600019600388901b60f8161c191681555b5050505050600190811b0190555056fea2646970667358221220e841e1ca6dc9ce11d264e4bea76cda3da80eafb8f91cf5ab8f8bde248269572464736f6c63430008140033",
  "linkReferences": {},
  "deployedLinkReferences": {}
}